:100A5E00543A0054483A00544C3A004F563A480023
:0A0A6E004F563A4C002020202000D3
:0700030001110002160000CC
:10046D00120B227FE87E03120AEAE4FF1208C08F06
:10047D000F7F011208C08F0AD3E50F648094FD50E1
:10048D0016C3E50A64809449400DD3E50A6480F8EB
:10049D00E50F6480985006750F14750A0F120AFF48
:1004AD007BFF7A0A795E7D017F011209697BFF7AF4
:1004BD000A79617D017F021209697BFF7A0A7965EC
:1004CD007D097F02120969E50FFB3395E0FA751C72
:1004DD00037D047F021207A9E50AFB3395E0FA7547
:1004ED001C037D0C7F021207A9120A91120B698F52
:1004FD0010120B221208F08F0E8E0D8D0C8C0BE44A
:10050D00FFFEFDFCAB0EAA0DA90CA80B1201B450F9
:10051D001E7B2D7D037F01120B45AF0EAE0DAD0C75
:10052D00AC0B12022D8F158E148D138C1280157B32
:10053D002B7D037F01120B45850E15850D14850C42
:10054D0013850B12AF15AE14AD13AC1212027CABAA
:10055D0007AA06751C037D047F01120A087B2E7DF8
:10056D00077F01120B45E4FFFE7DC87C42AB15AA47
:10057D0014A913A81212000E12027CE47B64FAF97E
:10058D00F81203CD751C027D087F01120A08E510D3
:10059D00700302063AB4010E050FD3E50F64809483
:1005AD00FD4003750F7DE510B40211150FD3E50A5B
:1005BD006480F8E50F6480985002050FE510B403D0
:1005CD0011050AC3E50F6480F8E50A6480984002BE
:1005DD00150AE510B4040E150AC3E50A64809449A2
:1005ED005003750AC9E50FFB3395E0FA751C037DC1
:1005FD00047F021207A9E50AFB3395E0FA751C0387
:10060D007D0C7F021207A9E50FFD3395E0FCE4FF99
:10061D001209457F057E00120AEAE50AFD3395E0D1
:10062D00FC7F011209457F057E00120AEAAC0FEC32
:10063D00120248AB0EAA0DA90CA80B1201B460153D
:10064D0040137BFF7A0A79697D0D7F011209697567
:10065D0011010204F9AC0AEC120248AB0EAA0DA965
:10066D000CA80B1201B450137BFF7A0A796E7D0D25
:10067D007F01120969E4F5110204F97BFF7A0A7909
:0E068D00737D0D7F01120969E4F5110204F975
:03000B00020727C2
:10072700C0E0C0F0C083C082C0D075D000C000C098
:0D07370001C002C003C004C005C006C00719
:10074400758A18758CFC0509E50970020508C394BF
:1007540014E5089400400975080075090012081C86
:10076400E51160200517E51770020516C394F4E53A
:1007740016940140157516007517007FC87E001287
:0A078400098C800675160075170039
:10078E00D007D006D005D004D003D002D001D000BF
:0B079E00D0D0D082D083D0F0D0E03269
:100AEA00EF1FAC0670011E4C600A7D027CEFDCFE33
:040AFA00DDFC80ECB3
:010AFE0022D5
:060B1300C2A58F80D2A7ED
:080B19007F027EEFDEFEDFFC2F
:010B210022B1
:0A0B3B00C2A6120B13C2A7020B1989
:1009AE00CFCDCFCECCCE12033C7C007D0A12033CC1
:0409BE00ED2430FFF5
:0A09C200D2A6120B13C2A7020B19F4
:100AA800AE07BE0104ED148006BE0209ED243F44E2
:060AB80080FF120B3B223F
:100AFF007F38120B3B7F0C120B3B7F06120B3B7F99
:040B0F0001020B3B99
:0A0B4500AC03120AA8AF040209C2B3
:060969008B188A19891A9F
:10096F00120AA8E4FDAB18AA19A91A8D8275830083
:0C097F001202FDFF60061209C20D80E9A3
:01098B002249
:0C088D007F0AEA24FFFDE434FFFC7E003B
:080899008E1F8F208C218D229F
:1008A1007F017E00E4FBEBC39522E5216480F874AF
:0E08B1008098500AAC1FAD2012032A0B80E87D
:0108BF002216
:040A08008A1A8B1BA0
:100A0C00120AA8AA1CEAD39400400D12088DAC1A45
:080A1C00AD1B1209AE1A80EDBA
:010A240022AF
:1007A900120AA8C3EA64809480400B7F2B1209C205
:1007B9008A1D8B1E800E7F2D1209C2C3E49BF51E74
:1007C900E49AF51DAA1CEAD39400400D12088DACD9
:0907D9001DAD1E1209AE1A80EDDF
:0107E20022F4
:0407E3008A258B26B2
:1007E700120AA8AA27EAD3940040297F1012088F7B
:1007F700AC25AD26CFCDCFCECCCE12033CEF540FD8
:10080700FEC3940AEE5004243080022437FF1209F5
:04081700C21A80D1B0
:01081B0022BA
:040855008A2A8B2B35
:10085900120AA8AA2CEAD394004028EA24FFFDE44E
:1008690034FFFC7F027E00120899AC2AAD2BCFCD54
:10087900CFCECCCE12033CEF54012430FF1209C273
:030889001A80D200
:01088C002249
:100945008F188C198D1A120B597FA012091C120BC6
:100955002FAF1812091C120B2FAF1A12091C120BFC
:040965002F020B62F0
:0208C0008F188F
:1008C200120B597FA012091C120B2FAF1812091C10
:1008D200120B2F120B597FA112091C120B2F120996
:0D08E200CC8F197F01120B4F120B62AF1962
:0108EF0022E6
:090B5900D2A0D2A1C2A0C2A122C7
:070B6200C2A0D2A1D2A02223
:02091C00AD0725
:10091E00E4FB74807E00A803088006CEA2E713CE07
:10092E0013D8F8FFEDF582EF558224FF92A0D2A1E5
:06093E00C2A10BBB08DCA6
:010944002290
:1009CC00E4FFD2A0FED2A130A00D7480A80608804E
:0D09DC0002C313D8FC4207C2A10EBE08E8FA
:0109E90022EB
:0A0B4F00EF24FF92A0D2A1C2A12260
:0B0B2F00D2A0D2A1A2A0E433FFC2A11B
:010B3A002298
:0D0B22001209EA7FCC120A787F44020A789B
:1008F0001209EA7FCC120A787FBE120A78120A2502
:100900008F18120A25EFFEE518FFFDAC06EC120267
:0B09100043E4FBFA79807841120117E4
:01091B0022B9
:1009EA00C2AFD2B7C2B77FF7DFFED2B77F20DFFE32
:0D09FA00A2B7E433FE7FF7DFFED2AFAF06F9
:010A070022CC
:100ABE00C2AFC2B77E04DEFEEF24FF92B77E18DE11
:050ACE00FED2B7D2AF1B
:010AD3002200
:100A4200C2AFC2B77F02DFFED2B77F02DFFEA2B71C
:0B0A5200E433FE7F18DFFED2AFAF06DA
:010A5D002276
:020A7800AD07C8
:100A7A00E4FC7401A804088002C333D8FC5DFF12A9
:060A8A000ABE0CBC08ECE2
:010A90002243
:100A2500E4FDFC120A42EF600D7401A8040880027F
:0C0A3500C333D8FC42050CBC08E9AF0537
:010A41002292
:050B6900E4AF2FF52FA1
:010B6E002264
:100AD400E4FF20B1010F20B0027F0220B2027F03A5
:050AE40020B3027F04B5
:010AE90022EA
:10081C00852D2E120AD48F2DE52EB40107E52D70EF
:10082C0003752F01E52EB40207E52D7003752F0219
:10083C00E52EB40307E52D7003752F03E52EB404E4
:08084C0007E52D7003752F0470
:010854002281
:100A91005389F0438901758A18758CFCC28DD28CFB
:070AA100D2A9D2AFC2B922B5
:050B6F00007FF7DFFE2E
:010B7400225E
:04098C00AD07AC0601
:10099000E4FBFAED25E0FFEC33FEC3EB9FEA9E504B
:0D09A0000CB2A5120B6F0BBB00010A80E624
:0109AD002227
:10000E00EC4D6011E8497017ED33EC3304600DE4EC
:10001E00FCFFFEFD22E933E8330470F80202E81219
:10002E0002B358046009E4CC24815006285009021A
:10003E0002F22840030202EFC0E0EB4A7044B9809E
:10004E0006D0E0FB0202DEEF4E701CBD8008EBFF17
:10005E00EAFEE9FD80EBE98DF0A4FEE5F00200F783
:10006E00E9CDF9EAFEEBFFEF89F0A4FCE5F0CE89CD
:10007E00F0A42EFFE435F0CD89F0A42DFEE435F08A
:10008E008067EF4E7005BD80D780C3EF8BF0A4ACB8
:10009E00F0EE8BF0A42CFCE435F0F8EF8AF0A42CF3
:1000AE00E5F038FCE433CB8DF0A42CFCE5F03BF806
:1000BE00EE8AF0A42CFCE5F038F8E433CF89F0A4F6
:1000CE002CFCE5F038CF3400CE89F0A42FFFE5F0FC
:1000DE003EFEE433C98DF0A42EFEE5F039CD8AF054
:1000EE00A42FFFE5F03EFEE43DFD33D0E0FB5007CC
:1000FE000BBB000F0202F2EC2CFCEF33FFEE33FED3
:06010E00ED33FD0202CA00
:100114000202F2EC5D046005E8590470030202E88F
:100124001202B3580460F6EC4860F2EC7004FDFE71
:10013400FF22C860DB2481C85009C39860025006BE
:100144000202EF9850CAF582E9294B4A7005AB8246
:100154000202DE75F0007C1A7880C3EF9BEE9AED04
:1001640099400DC3EF9BFFEE9AFEED99FDE842F036
:10017400DC23ACF0D0E0FFD0E0FED0E0FDAB822089
:10018400E7101BEB60BAEC2CFCEF33FFEE33FEED13
:1001940033FD0202CAE803F830E705C0F075F00049
:1001A400EF2FFFEE33FEED33FD40B830E7C280AAF7
:1001B40074F8CC6480CCC86480C8F58204604FC3F2
:1001C400EB9FF5F0EA9E42F0E99D42F0E89C45F091
:1001D400603C501DE5825FFFE582D313CB5BCBF41B
:1001E4002B5582FB50280ABA002409B90020088044
:1001F4001DE5825BFBE582D313CF5FCFF4C3132FDE
:100204005582FF50090EBE00050DBD00010CC3EB65
:100214009FF5F0EA9E42F0E99D42F0E89C45F060CB
:0902240007CC4820E701B3EC22ED
:10022D00ED33EC33600A047003BD8004ECB2E7FCDF
:01023D00229E
:10023E0075F020800E75F010800575F0087D007E3B
:10024E00007F003392D530D50312045FEC3340109B
:10025E00EF33FFEE33FEED33FDEC33FCD5F0ED2244
:0E026E00E5F0247EA2D513CC92E7CDCEFF2280
:10027C00EDD2E7CD33EC3392D524814006E4FFFE7A
:10028C00FDFC22FCE4CFCECDCC24E0501174FF80D9
:10029C00EDC3CC13CCCD13CDCE13CECF13CF047076
:0702AC00F030D5DE02045F13
:1002B300E9D2E7C933E833F892D5EDD2E7CD33EC91
:0702C30033FC5002B2D5220A
:1002CA00EC30E7100FBF000C0EBE00080DBD000495
:1002DA000BEB6014A2D5EB13FCED92E7FD2274FF41
:1002EA00FCFDFEFF22E480F8A2D574FF13FC7D809A
:0302FA00E480EFAE
:0300000002069B5A
:0C069B00787FE4F6D8FD75812F0206E29E
:1002FD00BB010CE58229F582E5833AF583E02250B6
:10030D0006E92582F8E622BBFE06E92582F8E222FF
:0D031D00E58229F582E5833AF583E4932219
:10032A00EF8DF0A4A8F0CF8CF0A428CE8DF0A42EE7
:02033A00FE22A1
:10033C00BC000BBE0029EF8DF084FFADF022E4CCA5
:10034C00F875F008EF2FFFEE33FEEC33FCEE9DEC6E
:10035C00984005FCEE9DFE0FD5F0E9E4CEFD22EDB4
:10036C00F8F5F0EE8420D21CFEADF075F008EF2FFE
:10037C00FFED33FD4007985006D5F0F222C398FDEF
:05038C000FD5F0EA228C
:1003910075F008758200EF2FFFEE33FECD33CDCC23
:1003A10033CCC58233C5829BED9AEC99E5829840A6
:1003B1000CF582EE9BFEED9AFDEC99FC0FD5F0D683
:1003C100E4CEFBE4CDFAE4CCF9A88222B800C1B9AD
:1003D1000059BA002DEC8BF084CFCECDFCE5F0CBEB
:1003E100F97818EF2FFFEE33FEED33FDEC33FCEB24
:1003F10033FB10D703994004EB99FB0FD8E5E4F9DF
:10040100FA227818EF2FFFEE33FEED33FDEC33FCCB
:10041100C933C910D7059BE99A4007EC9BFCE99ABF
:10042100F90FD8E0E4C9FAE4CCFB2275F010EF2F04
:10043100FFEE33FEED33FDCC33CCC833C810D70704
:100441009BEC9AE899400AED9BFDEC9AFCE899F83F
:0E0451000FD5F0DAE4CDFBE4CCFAE4C8F922D2
:0E045F00C3E49FFFE49EFEE49DFDE49CFC22AE
:1006A70002046DE493A3F8E493A34003F68001F2F8
:1006B70008DFF48029E493A3F85407240CC8C33354
:1006C700C4540F4420C8834004F456800146F6DF23
:1006D700E4800B0102040810204080900003E47EB0
:1006E700019360BCA3FF543F30E509541FFEE49318
:1006F700A360010ECF54C025E060A840B8E493A3DF
:10070700FAE493A3F8E493A3C8C582C8CAC583CA09
:10071700F0A3C8C582C8CAC583CADFE9DEE780BEC1
:01000A0000F5
:00000001FF
