:100A7900543A0054483A00544C3A004F563A480008
:0A0A89004F563A4C002020202000B8
:0700030001110002160000CC
:10046D00D2A2D2A3D2A4E4F580D2A0D2A1120B3D88
:10047D007FE87E03120B05E4FF1208DB8F0F7F016F
:10048D001208DB8F0AD3E50F648094FD5016C3E587
:10049D000A64809449400DD3E50A6480F8E50F6441
:1004AD0080985006750F14750A0F120B1A7BFF7A80
:1004BD000A79797D017F011209847BFF7A0A797CA3
:1004CD007D017F021209847BFF7A0A79807D097F85
:1004DD0002120984E50FFB3395E0FA751C037D04C8
:1004ED007F021207C4E50AFB3395E0FA751C037D04
:1004FD000C7F021207C4120AAC120B848F10120B60
:10050D003D12090B8F0E8E0D8D0C8C0BE4FFFEFD35
:10051D00FCAB0EAA0DA90CA80B1201B4501E7B2D1D
:10052D007D037F01120B60AF0EAE0DAD0CAC0B1247
:10053D00022D8F158E148D138C1280157B2B7D0340
:10054D007F01120B60850E15850D14850C13850B1F
:10055D0012AF15AE14AD13AC1212027CAB07AA0686
:10056D00751C037D047F01120A237B2E7D077F01FD
:10057D00120B60E4FFFE7DC87C42AB15AA14A913D3
:10058D00A81212000E12027CE47B64FAF9F8120331
:10059D00CD751C027D087F01120A23E51070030240
:1005AD000647B4010E050FD3E50F648094FD40039B
:1005BD00750F7DE510B40211150FD3E50A6480F8AF
:1005CD00E50F6480985002050FE510B40311050A7C
:1005DD00C3E50F6480F8E50A6480984002150AE5CA
:1005ED0010B4040E150AC3E50A64809449500375CE
:1005FD000AC9E50FFB3395E0FA751C037D047F02F4
:10060D001207C4E50AFB3395E0FA751C037D0C7FD8
:10061D00021207C4E50FFD3395E0FCE4FF120960FB
:10062D007F057E00120B05E50AFD3395E0FC7F0189
:10063D001209607F057E00120B05AC0FEC1202480B
:10064D00AB0EAA0DA90CA80B1201B4601840167BB5
:10065D00FF7A0A79847D0D7F01120984751101D20B
:10066D00A0D2A1803BAC0AEC120248AB0EAA0DA998
:10067D000CA80B1201B47BFF50147A0A79897D0DF9
:10068D007F01120984E4F511C2A0D2A180127A0A69
:10069D00798E7D0D7F01120984E4F511D2A0C2A1DE
:0906AD00D2A2D2A3D2A4020506D8
:03000B00020742A7
:10074200C0E0C0F0C083C082C0D075D000C000C07D
:0D07520001C002C003C004C005C006C007FE
:10075F00758A18758CFC0509E50970020508C394A4
:10076F0014E5089400400975080075090012083750
:10077F00E51160200517E51770020516C394F4E51F
:10078F0016940140157516007517007FC87E00126C
:0A079F0009A7800675160075170003
:1007A900D007D006D005D004D003D002D001D000A4
:0B07B900D0D0D082D083D0F0D0E0324E
:100B0500EF1FAC0670011E4C600A7D027CEFDCFE17
:040B1500DDFC80EC97
:010B190022B9
:060B2E00C2A58F80D2A7D2
:080B34007F027EEFDEFEDFFC14
:010B3C002296
:0A0B5600C2A6120B2EC2A7020B3438
:1009C900CFCDCFCECCCE12033C7C007D0A12033CA6
:0409D900ED2430FFDA
:0A09DD00D2A6120B2EC2A7020B34A3
:100AC300AE07BE0104ED148006BE0209ED243F44C7
:060AD30080FF120B562209
:100B1A007F38120B567F0C120B567F06120B567F2C
:040B2A0001020B5663
:0A0B6000AC03120AC3AF040209DD62
:060984008B188A19891A84
:10098A00120AC3E4FDAB18AA19A91A8D827583004D
:0C099A001202FDFF60061209DD0D80E96D
:0109A600222E
:0C08A8007F0AEA24FFFDE434FFFC7E0020
:0808B4008E1F8F208C218D2284
:1008BC007F017E00E4FBEBC39522E5216480F87494
:0E08CC008098500AAC1FAD2012032A0B80E862
:0108DA0022FB
:040A23008A1A8B1B85
:100A2700120AC3AA1CEAD39400400D1208A8AC1AF4
:080A3700AD1B1209C91A80ED84
:010A3F002294
:1007C400120AC3C3EA64809480400B7F2B1209DDB4
:1007D4008A1D8B1E800E7F2D1209DDC3E49BF51E3E
:1007E400E49AF51DAA1CEAD39400400D1208A8ACA3
:0907F4001DAD1E1209C91A80EDA9
:0107FD0022D9
:0407FE008A258B2697
:10080200120AC3AA27EAD3940040297F101208AA29
:10081200AC25AD26CFCDCFCECCCE12033CEF540FBC
:10082200FEC3940AEE5004243080022437FF1209DA
:04083200DD1A80D17A
:01083600229F
:040870008A2A8B2B1A
:10087400120AC3AA2CEAD394004028EA24FFFDE418
:1008840034FFFC7F027E001208B4AC2AAD2BCFCD1E
:10089400CFCECCCE12033CEF54012430FF1209DD3D
:0308A4001A80D2E5
:0108A700222E
:100960008F188C198D1A120B747FA0120937120B75
:100970004AAF18120937120B4AAF1A120937120B75
:040980004A020B7D9F
:0208DB008F1874
:1008DD00120B747FA0120937120B4AAF1812093789
:1008ED00120B4A120B747FA1120937120B4A12090F
:0D08FD00E78F197F01120B6A120B7DAF19F6
:01090A0022CA
:090B7400D2A0D2A1C2A0C2A122AC
:070B7D00C2A0D2A1D2A02208
:02093700AD070A
:10093900E4FB74807E00A803088006CEA2E713CEEC
:1009490013D8F8FFEDF582EF558224FF92A0D2A1CA
:06095900C2A10BBB08DC8B
:01095F002275
:1009E700E4FFD2A0FED2A130A00D7480A806088033
:0D09F70002C313D8FC4207C2A10EBE08E8DF
:010A040022CF
:0A0B6A00EF24FF92A0D2A1C2A12245
:0B0B4A00D2A0D2A1A2A0E433FFC2A100
:010B5500227D
:0D0B3D00120A057FCC120A937F44020A932E
:10090B00120A057FCC120A937FBE120A93120A4079
:10091B008F18120A40EFFEE518FFFDAC06EC120231
:0B092B0043E4FBFA79807841120117C9
:01093600229E
:100A0500C2AFD2B7C2B77FF7DFFED2B77F20DFFE16
:0D0A1500A2B7E433FE7FF7DFFED2AFAF06DD
:010A220022B1
:100AD900C2AFC2B77E04DEFEEF24FF92B77E18DEF6
:050AE900FED2B7D2AF00
:010AEE0022E5
:100A5D00C2AFC2B77F02DFFED2B77F02DFFEA2B701
:0B0A6D00E433FE7F18DFFED2AFAF06BF
:010A7800225B
:020A9300AD07AD
:100A9500E4FC7401A804088002C333D8FC5DFF128E
:060AA5000AD90CBC08ECAC
:010AAB002228
:100A4000E4FDFC120A5DEF600D7401A80408800249
:0C0A5000C333D8FC42050CBC08E9AF051C
:010A5C002277
:050B8400E4AF2FF52F86
:010B89002249
:100AEF00E4FF20B1010F20B0027F0220B2027F038A
:050AFF0020B3027F049A
:010B040022CE
:10083700852D2E120AEF8F2DE52EB40107E52D70B9
:1008470003752F01E52EB40207E52D7003752F02FE
:10085700E52EB40307E52D7003752F03E52EB404C9
:0808670007E52D7003752F0455
:01086F002266
:100AAC005389F0438901758A18758CFCC28DD28CE0
:070ABC00D2A9D2AFC2B9229A
:050B8A00007FF7DFFE13
:010B8F002243
:0409A700AD07AC06E6
:1009AB00E4FBFAED25E0FFEC33FEC3EB9FEA9E5030
:0D09BB000CB2A5120B8A0BBB00010A80E6EE
:0109C800220C
:10000E00EC4D6011E8497017ED33EC3304600DE4EC
:10001E00FCFFFEFD22E933E8330470F80202E81219
:10002E0002B358046009E4CC24815006285009021A
:10003E0002F22840030202EFC0E0EB4A7044B9809E
:10004E0006D0E0FB0202DEEF4E701CBD8008EBFF17
:10005E00EAFEE9FD80EBE98DF0A4FEE5F00200F783
:10006E00E9CDF9EAFEEBFFEF89F0A4FCE5F0CE89CD
:10007E00F0A42EFFE435F0CD89F0A42DFEE435F08A
:10008E008067EF4E7005BD80D780C3EF8BF0A4ACB8
:10009E00F0EE8BF0A42CFCE435F0F8EF8AF0A42CF3
:1000AE00E5F038FCE433CB8DF0A42CFCE5F03BF806
:1000BE00EE8AF0A42CFCE5F038F8E433CF89F0A4F6
:1000CE002CFCE5F038CF3400CE89F0A42FFFE5F0FC
:1000DE003EFEE433C98DF0A42EFEE5F039CD8AF054
:1000EE00A42FFFE5F03EFEE43DFD33D0E0FB5007CC
:1000FE000BBB000F0202F2EC2CFCEF33FFEE33FED3
:06010E00ED33FD0202CA00
:100114000202F2EC5D046005E8590470030202E88F
:100124001202B3580460F6EC4860F2EC7004FDFE71
:10013400FF22C860DB2481C85009C39860025006BE
:100144000202EF9850CAF582E9294B4A7005AB8246
:100154000202DE75F0007C1A7880C3EF9BEE9AED04
:1001640099400DC3EF9BFFEE9AFEED99FDE842F036
:10017400DC23ACF0D0E0FFD0E0FED0E0FDAB822089
:10018400E7101BEB60BAEC2CFCEF33FFEE33FEED13
:1001940033FD0202CAE803F830E705C0F075F00049
:1001A400EF2FFFEE33FEED33FD40B830E7C280AAF7
:1001B40074F8CC6480CCC86480C8F58204604FC3F2
:1001C400EB9FF5F0EA9E42F0E99D42F0E89C45F091
:1001D400603C501DE5825FFFE582D313CB5BCBF41B
:1001E4002B5582FB50280ABA002409B90020088044
:1001F4001DE5825BFBE582D313CF5FCFF4C3132FDE
:100204005582FF50090EBE00050DBD00010CC3EB65
:100214009FF5F0EA9E42F0E99D42F0E89C45F060CB
:0902240007CC4820E701B3EC22ED
:10022D00ED33EC33600A047003BD8004ECB2E7FCDF
:01023D00229E
:10023E0075F020800E75F010800575F0087D007E3B
:10024E00007F003392D530D50312045FEC3340109B
:10025E00EF33FFEE33FEED33FDEC33FCD5F0ED2244
:0E026E00E5F0247EA2D513CC92E7CDCEFF2280
:10027C00EDD2E7CD33EC3392D524814006E4FFFE7A
:10028C00FDFC22FCE4CFCECDCC24E0501174FF80D9
:10029C00EDC3CC13CCCD13CDCE13CECF13CF047076
:0702AC00F030D5DE02045F13
:1002B300E9D2E7C933E833F892D5EDD2E7CD33EC91
:0702C30033FC5002B2D5220A
:1002CA00EC30E7100FBF000C0EBE00080DBD000495
:1002DA000BEB6014A2D5EB13FCED92E7FD2274FF41
:1002EA00FCFDFEFF22E480F8A2D574FF13FC7D809A
:0302FA00E480EFAE
:030000000206B63F
:0C06B600787FE4F6D8FD75812F0206FD68
:1002FD00BB010CE58229F582E5833AF583E02250B6
:10030D0006E92582F8E622BBFE06E92582F8E222FF
:0D031D00E58229F582E5833AF583E4932219
:10032A00EF8DF0A4A8F0CF8CF0A428CE8DF0A42EE7
:02033A00FE22A1
:10033C00BC000BBE0029EF8DF084FFADF022E4CCA5
:10034C00F875F008EF2FFFEE33FEEC33FCEE9DEC6E
:10035C00984005FCEE9DFE0FD5F0E9E4CEFD22EDB4
:10036C00F8F5F0EE8420D21CFEADF075F008EF2FFE
:10037C00FFED33FD4007985006D5F0F222C398FDEF
:05038C000FD5F0EA228C
:1003910075F008758200EF2FFFEE33FECD33CDCC23
:1003A10033CCC58233C5829BED9AEC99E5829840A6
:1003B1000CF582EE9BFEED9AFDEC99FC0FD5F0D683
:1003C100E4CEFBE4CDFAE4CCF9A88222B800C1B9AD
:1003D1000059BA002DEC8BF084CFCECDFCE5F0CBEB
:1003E100F97818EF2FFFEE33FEED33FDEC33FCEB24
:1003F10033FB10D703994004EB99FB0FD8E5E4F9DF
:10040100FA227818EF2FFFEE33FEED33FDEC33FCCB
:10041100C933C910D7059BE99A4007EC9BFCE99ABF
:10042100F90FD8E0E4C9FAE4CCFB2275F010EF2F04
:10043100FFEE33FEED33FDCC33CCC833C810D70704
:100441009BEC9AE899400AED9BFDEC9AFCE899F83F
:0E0451000FD5F0DAE4CDFBE4CCFAE4C8F922D2
:0E045F00C3E49FFFE49EFEE49DFDE49CFC22AE
:1006C20002046DE493A3F8E493A34003F68001F2DD
:1006D20008DFF48029E493A3F85407240CC8C33339
:1006E200C4540F4420C8834004F456800146F6DF08
:1006F200E4800B0102040810204080900003E47E95
:10070200019360BCA3FF543F30E509541FFEE493FC
:10071200A360010ECF54C025E060A840B8E493A3C3
:10072200FAE493A3F8E493A3C8C582C8CAC583CAEE
:10073200F0A3C8C582C8CAC583CADFE9DEE780BEA6
:01000A0000F5
:00000001FF
