:10411700C6D5D6D0BFC6BCBC007777772E70726580
:104127006368696E2E636E00475549205465737442
:0541370000525354008A
:09420C0041012600420124001FBB
:10244D0012419A9000EAE070030226599000EBE0E9
:10245D00FEA3E0FFE4FCFD9000E2E0F8A3E0F9A3A9
:10246D00E0FAA3E0FBD312216D40179000ECE024BD
:10247D00FFFF9000EBE034FFFEE4FCFD9000E21264
:10248D00217E9000EDE0FEA3E0FFE4FCFD9000E670
:10249D00E0F8A3E0F9A3E0FAA3E0FBD312216D402D
:1024AD00179000EEE024FFFF9000EDE034FFFEE416
:1024BD00FCFD9000E612217E9000ECE024DCFF9004
:1024CD0000EBE034FFFEE4FCFD9000E2E0F8A3E059
:1024DD00F9A3E0FAA3E0FBC312216D401FE47F18BE
:1024ED00FEFDFC9000E6E0F8A3E0F9A3E0FAA3E01E
:1024FD00FB12216D50069001267401F09000EEE064
:10250D0024ECFF9000EDE034FFFEE4FCFD9000E6CE
:10251D00E0F8A3E0F9A3E0FAA3E0FBD312216D509C
:10252D0003022604E47F64FEFDFC9000E2E0F8A3C4
:10253D00E0F9A3E0FAA3E0FBD312216D400790016F
:10254D002474FF8044E47F50FEFDFC9000E2E0F82F
:10255D00A3E0F9A3E0FAA3E0FBD312216D400B90A9
:10256D000124747FF0A374FFF022E47F3CFEFDFC98
:10257D009000E2E0F8A3E0F9A3E0FAA3E0FBD312A8
:10258D00216D400B9001247407F0A374E0F022E458
:10259D007F28FEFDFC9000E2E0F8A3E0F9A3E0FA4D
:1025AD00A3E0FBD312216D400790012474F8804104
:1025BD00E47F14FEFDFC9000E2E0F8A3E0F9A3E057
:1025CD00FAA3E0FBD312216D400A90012474F8F0B8
:1025DD00A3E4F022E4FFFEFDFC9000E2E0F8A3E0AE
:1025ED00F9A3E0FAA3E0FBD312216D405F90012423
:1025FD00E4F0A3741FF0229000E2A3A3E0FEA3E099
:10260D00FBAA0624FEFFEA34FFFEC006C007A3A303
:10261D00A3E0FEA3E024FEFDEE34FFFCEB2402FB61
:10262D00E43AFA9000E6A3A3A3E02402FFE43E906F
:10263D00003CF0A3EFF0900124E0FFA3E090003EFA
:0C264D00CFF0A3EFF0D007D006123A5DEA
:01265900225E
:1030C50074FF9000F2F0A3F09000EBE0C313FEA3B1
:1030D500E01324C4FFEE34FFFE7BFF7A417917E449
:1030E500FDFC1233649000EBE0FAA3E0FBEAC313A6
:1030F500FEEB1324ACFFEE34FFFEA3E0FDA3E0904E
:10310500003CCDF0A3EDF0A37418F0A374FFF0A379
:103115007441F0A37420F07D1E7C001237C490002A
:10312500EBE0FAA3E0FBEAC313FEEB1324C8FFEEC2
:1031350034FFFEA3E0FDA3E090003CCDF0A3EDF04D
:10314500A37418F0A374FFF0A37441F0A3742FF0D7
:103155007D377C001237C49000F274F8F0A3E4F0D8
:103165007BE07A077D37FC7F0AFE120000900000A5
:10317500E4F0A37450F0A3740AF0A37407F0A374E9
:10318500E0F07B787A007D507C007F0A7E0012009B
:1031950000900000E4F0A3741EF0A37407F0A3747C
:1031A500E0F07B1E7A007D5F7C007F0A7E001200C6
:1031B50000900000E4F0A3741EF0A37405F0A3745E
:1031C50001F0A3E4F0A3741FF0A37407F0A374E067
:1031D500F07B1E7A007D5F7C007F327E001200004E
:1031E500900000E4F0A3741EF0A37407F0A374E04C
:1031F500F07B1E7A007D5F7C007F5A7E0012000006
:10320500900000E4F0A3740AF0A37407F0A374E03F
:10321500F07B147A007D967C007F1E7E00120000F4
:103225007FD07E0712415E9000F4E0FEA3E0FF022E
:023235003DAEAC
:102C0E00E4900034F0A3F012422512221374FF90C8
:102C1E0000F2F0A3F09000EBE0C313FEA3E0132448
:102C2E00C4FFEE34FFFE7BFF7A417917E4FDFC1200
:102C3E0033649000EBE0FAA3E0FBEAC313FEEB1360
:102C4E0024ACFFEE34FFFEA3E0FDA3E090003CCDEC
:102C5E00F0A3EDF0A37418F0A374FFF0A37441F089
:102C6E00A37420F07D1E7C001237C49000F274F81D
:102C7E00F0A3E4F09000EBE0FAA3E0FB24DCFFEA23
:102C8E0034FFFEA3E0FDA3E090003CCDF0A3EDF0F9
:102C9E00A37418F0A374FFF0A37441F0A37438F07A
:102CAE00E4FDFC1237C49000EDE0FEA3E0FF24EC3F
:102CBE00FDEE34FFFC90003CEEF0A3EFF0A3E4F049
:102CCE00A3741FF07B147A00E4FFFE123A5D9000AD
:102CDE00EDE0FEA3E0FF24ECFDEE34FFFC90003CA3
:102CEE00EEF0A3EFF0A374F8F0A3E4F07B28FA7FE4
:102CFE0014FE123A5D9000EDE0FEA3E0FF24ECFD21
:102D0E00EE34FFFC90003CEEF0A3EFF0A374F8F06D
:102D1E00A3741FF07B3C7A007F287E00123A5D90F0
:102D2E0000EDE0FEA3E0FF24ECFDEE34FFFC90008E
:102D3E003CEEF0A3EFF0A37407F0A374E0F07B5029
:102D4E007A007F3C7E00123A5D9000EDE0FEA3E03B
:102D5E00FF24ECFDEE34FFFC90003CEEF0A3EFF010
:102D6E00A3747FF0A374FFF07B647A007F507E0023
:102D7E00123A5D9000EDE0FEA3E0FF24ECFDEE3490
:102D8E00FFFC90003CEEF0A3EFF0A374FFF0A374F1
:102D9E00E0F07B787A007F647E00123A5D90012627
:102DAE00E06010E4F09000F4E0FEA3E0FF123DAE10
:082DBE00022C1B12244D80E5DC
:0B425700EF1FAC0670011E4C70F62239
:10415E00D3EF9400EE940040147D6E7C00ED1D7044
:0D416E00011CED4C70F7EF1F70E61E80E3A2
:01417B002221
:05421500420032000030
:10422500759850758920758780758DFA858D8BD227
:06423500AFD28ED29922E7
:06426D00EF24FF92AC22D9
:0E423B00C2ACC2998F993099FDC299D2AC22C3
:1040BD00900127EBF0A3EAF0A3E9F0900127E0FBD4
:1040CD00A3E0FAA3E0F9121F7EFF601612423B7FB8
:1040DD00057E00124257900128E475F001121FD69B
:0340ED0080D92255
:03002300023D2774
:103D2700C0E0C083C082C0D075D000C004C005C049
:013D37000784
:103D3800309864C298AF99900032E0FCEC20E757C5
:103D480030E60FEF640A90003260028046E044805B
:103D5800800AEFB40D0C900032E04440F0A3E0F08C
:103D68008035900032E0543FFCA3E02400F58274D3
:103D7800003CF583EFF0900033E004F0700690000B
:103D880032E004F0D3900033E09431900032E094B4
:073D9800004004E4F0A3F079
:0F3D9F00D007D005D004D0D0D082D083D0E0326E
:10002600204C43442049443A25780D0A000000003C
:10003600000000000000000000000000003F40003B
:1000460000000000000000300040003000400000CA
:100056000009000BC03D000BC03D00090018C0247C
:10006600407FE0224031800000180024C01B000DB4
:10007600803240018003801C4027401C80074000DE
:1000860040100060000000000000000000000000BA
:100096000000001F80204040200000402020401F1C
:1000A6008000000000090006001F8006000900000D
:1000B60000040004003F800400040000000010005B
:1000C60060000000000000000004000400040004BA
:1000D60000040000000000004000000000000000D6
:1000E60000002001C006003800400000001F8020EC
:1000F60040204020401F800000000010403FC0000C
:10010600400000000018C021402240244018400052
:100116000010802040244024401B80000002000D77
:100126000011003FC0014000003C802440244024D0
:1001360040238000001F8024402440344003800078
:10014600003000200027C03800200000001B80245B
:1001560040244024401B8000001C0022C022402274
:10016600401F800000000000000840000000000062
:100176000000000000046000000000000000000411
:10018600000A00110020804040090009000900090A
:10019600000900000000004040208011000A000411
:1001A600001800200023402400180000001F8020B3
:1001B60040274029401F400000004007C039000F7B
:1001C6000001C0004020403FC0244024401B800066
:1001D600001F802040204020403080000020403F0B
:1001E600C0204020401F80000020403FC024402EF9
:1001F6004030C0000020403FC024402E00300000A8
:10020600000F001080204022403380020020403F33
:10021600C0040004003FC02040204020403FC020D2
:1002260040204000000060202020203FC020002009
:100236000020403FC024400B0030C0204020403FFB
:10024600C020400040004000C03FC03C0003C03C0E
:10025600003FC0000020403FC00C4023003FC020AC
:10026600001F802040204020401F80000020403F8B
:10027600C024402400180000001F80214021402097
:10028600E01FA0000020403FC02440260019C00007
:100296004018C02440244022403180000030002015
:1002A600403FC020403000000020003F800040005A
:1002B600403F80200020003E0001C007003800209B
:1002C60000380007C03C0007C03800000020403955
:1002D600C0060039C0204000002000384007C03862
:1002E6004020000000304021C02640384020C00099
:1002F60000000000007FE040204020000000007069
:10030600000C000380004000000000402040207FD9
:10031600E000000000000020004000200000000077
:100326000000100010001000100010001000000067
:1003360000400000000000000000000280054005AB
:100346004003C0004020003FC0044004400380003A
:100356000000000380044004400640000000000343
:1003660080044024403FC000400000038005400553
:100376004003400000000004401FC02440244020E9
:1003860000000002E0055005500650042020403FC2
:10039600C00440040003C000400000044027C00021
:1003A600400000000000100010041027E0000000CC
:1003B6000020403FC00140070004C0044020402008
:1003C600403FC000400040000007C0040007C004D2
:1003D6000003C00000044007C00440040003C0003E
:1003E600400000038004400440038000000410071E
:1003F600F004500440038000000000038004400421
:100406005007F00010044007C0024004000400003A
:1004160000000006400540054004C000000000043E
:10042600001F8004400040000004000780004004D4
:100436004007C000400400070004C0018006000415
:1004460000060001C0070001C006000000044006C7
:10045600C0010006C0044000000410071004E001BB
:1004660080060004000000044005C0064004400069
:10047600000000000004007BE040200000000000B7
:10048600000000FFF000000000000040207BE004B8
:1004960000000000004000800040002000200040D6
:1004A6000000000000000000000000000000000046
:1004B600000000000000001FCC000C00000000003F
:1004C60000000008003000600008003000600000F6
:1004D60000022003FC1E20022003FC1E2002200036
:1004E6000000000E1811043FFF10840C7800000075
:1004F600000F0010840F3800C007781884007800B9
:100506000000780F8410C411240E9800E4008400C3
:1005160008080068007000000000000000000000ED
:100526000000000000000007E01818200440020048
:1005360000000040022004181807E0000000000038
:10054600000240024001800FF0018002400240009C
:10055600000080008000800FF8008000800080008E
:10056600000001000D000E00000000000000000069
:100576000000000080008000800080008000800075
:10058600800000000C000C000000000000000000CD
:100596000000000006001800600180060018002018
:1005A60000000007F0080810041004080807F0000F
:1005B600000000080408041FFC00040004000000FA
:1005C6000000000E0C10141024104411840E0C00B0
:1005D6000000000C1810041104110412880C70009D
:1005E60000000000E00320042408241FFC0024006F
:1005F6000000001F98108411041104108810700068
:1006060000000007F0088811041104188800700023
:100616000000001C00100010FC13001C001000005D
:100626000000000E3811441084108411440E380066
:100636000000000700088C10441044088807F000EA
:1006460000000000000000030C030C000000000086
:10065600000000000000010106000000000000008C
:100666000000000080014002200410080810040069
:100676000002200220022002200220022002200086
:100686000000001004080804100220014000800049
:100696000000000E001200100C106C10800F0000FD
:1006A6000003E00C1813E4142417C4082807D0002C
:1006B600000004003C03C41C40074000E4001C008A
:1006C6000410041FFC1104110411040E88007000AC
:1006D6000003E00C1810041004100410081C10008D
:1006E6000010041FFC100410041004080807F00092
:1006F6000010041FFC1104110417C410040818008C
:100706000010041FFC1104110017C010000800009F
:100716000003E00C181004100410441C780040007C
:100726000010041FFC10840080008010841FFC1041
:10073600040000100410041FFC1004100400000044
:100746000000030001100110011FFE100010000040
:100756000010041FFC110403801464181C1004000C
:100766000010041FFC1004000400040004000C0028
:100776000010041FFC1F0000FC1F001FFC100400DB
:100786000010041FFC0C04030000E010181FFC10EE
:100796000007F00808100410041004080807F00009
:1007A6000010041FFC10841080108010800F0000C1
:1007B6000007F0081810241024101C080A07F2007D
:1007C6000010041FFC1104110011C011300E0C00A2
:1007D6000400000E1C11041084108410441C380000
:1007E600001800100010041FFC1004100018000070
:1007F6000010001FF810040004000410041FF81075
:100806000010001E0011E0001C007013801C001078
:10081600001FC0103C00E01F0000E0103C1FC0009D
:10082600001004180C163401C001C01634180C1040
:100836000410001C00130400FC13041C001000002C
:10084600000804101C1064108413041C0410180003
:10085600000000000000007FFE400240024002004F
:1008660000000030000C0003800060001C00030044
:100876000000004002400240027FFE00000000002F
:100886000000000000200040004000400020000062
:10089600000001000100010001000100010001004B
:1008A60001000040004000200000000000000000A1
:1008B6000000000098012401440144014400FC00AA
:1008C6000410001FFC008801040104008800700069
:1008D6000000000070008801040104010400880083
:1008E600000000007000880104010411081FFC00CC
:1008F60004000000F8014401440144014400C8001A
:10090600000000010401040FFC1104110411001879
:1009160000000000D601290129012901C9010600AC
:100926000010041FFC008401000100010400FC000B
:100936000400000104190419FC000400040000006E
:10094600000000000300010101190119FE0000006A
:100956000010041FFC0024004001B4010C01040037
:10096600000000100410041FFC0004000400000036
:1009760000010401FC0104010001FC010401000066
:10098600FC010401FC008401000100010400FC00DC
:1009960004000000F8010401040104010400F80049
:1009A60000010101FF0085010401040088007000B8
:1009B6000000000070008801040104010501FF0029
:1009C600010104010401FC0084010401000180000E
:1009D60000000000CC012401240124012401980018
:1009E6000000000100010007F801040104000000F6
:1009F60000010001F8000400040004010801FC00E5
:100A060004010001800170000C00100160018001EA
:100A16000001F0010C003001C00030010C01F001B2
:100A26000000000104018C00740170018C010400B7
:100A360000010101810171000E00180160018001B1
:100A46000000000184010C013401440184010C0002
:100A560000000000000000000001003EFC400240D3
:100A6600020000000000000000FFFF000000000080
:100A7600000000400240023EFC01000000000000B1
:100A86000000006000800080004000400020002040
:100A96000000000000000000000000000000000050
:100AA6000000000000000000000000000000000040
:100AB6000000000000000000000000000000000030
:100AC600000000000F80380FFE380F80380000004D
:100AD600000000000000000000000000000000010F
:100AE60000000600000C000038000031000006007F
:100AF600000C00003800003000000000000000007C
:100B06000061800067F807F980006180006180005D
:100B160061800061800067F807F98000618000004D
:100B26000000000000000001C0E003E0F00630080D
:100B36000418081FFFFE040E080787F00381E00073
:100B4600000000000001F000060C00040408060C7A
:100B56007001F9C0000E00003BE000EC1807080821
:100B6600040C180003E00000000001E00007F00399
:100B7600F818041C0804170807E1D003C0E0002396
:100B8600B0003C0800200800001000000000000033
:100B96000100003100003200001C000000000000CF
:100BA600000000000000000000000000000000003F
:100BB600000000000000000000000000000000002F
:100BC600007F0001FFC00780F00C00181000042011
:100BD60000020000000000002000021000040C00CB
:100BE600180780F001FFC0007F0000000000000031
:100BF60000000000000000000000000000420000AD
:100C06006600006600003C0000180003FFC00018E4
:100C160000003C0000660000660000420000000084
:100C26000008000008000008000008000008000195
:100C3600FFC00008000008000008000008000008C7
:100C46000000000000000100003100003200001C1E
:100C5600000000000000000000000000000000008E
:100C66000000000000000000000800000800000866
:100C76000000080000080000080000080000080046
:100C8600000800000800000000000000000000004E
:100C960000380000380000380000000000000000A6
:100CA600000000000000000000000000000000003E
:100CB60000000600001C000070000180000E00000D
:100CC600380000C0000700001C00003000000000D3
:100CD60000000000007F8001FFE00380700600181E
:100CE60004000804000806001803807001FFE000F5
:100CF6007F800000000000000000000100080100E5
:100D06000801000803FFF807FFF8000008000008C4
:100D160000000800000000000000000001C03802CA
:100D2600C058040098040118040218040418061C8C
:100D36001803F81801E0F8000000000000000000A9
:100D460001C0E003C0F0040008040808040808060F
:100D5600180803F41801E7F00001E00000000000A5
:100D660000000000000300000D00001100006100FB
:100D760000810803010807FFF80FFFF800010800CB
:100D860001080000000000000000E007FCD0060893
:100D960008061008061008061008061838060FF090
:100DA6000607C0000000000000000000003F8001B0
:100DB600FFE0038430020818041008041008041029
:100DC60008071810030FF00007C00000000000001D
:100DD60000000003C0000700000600000600F80639
:100DE60007F806180006E0000700000600000000ED
:100DF6000000000001E1E003F7F0063410041808D3
:100E0600041808040C08040C0806161803F3F0016D
:100E1600C1E000000000000000F80003FC300306FB
:100E2600380402080402080402080404100308F047
:100E360001FFC0007F00000000000000000000006D
:100E460000000000000000000070380070380070DC
:100E56003800000000000000000000000000000054
:100E660000000000000000000000000000301A0032
:100E7600301C000000000000000000000000000020
:100E8600000000000000000008000014000022001E
:100E9600004100008080010040020020040010088C
:100EA60000080000000000000021000021000021D1
:100EB6000000210000210000210000210000210087
:100EC60000210000210000000000000000000008D2
:100ED600000804001002002001004000808000414C
:100EE60000002200001400000800000000000000BE
:100EF60003C00004C000040000080038080F3808CA
:100F060008380810000C300007E00003C00000009D
:100F160000000000003F8000FFE0038070020F1019
:100F260006708804C088048308047F8802C0900382
:100F3600012000FE400000080000180001F8003EF5
:100F46000801C20007020007E20000FE00001FC8F9
:100F56000001F800003800000804000807FFF80741
:100F6600FFF8040808040808040808040808061816
:100F76000803F41801E7F00001E00000000000009B
:100F8600003F8001FFE0038070020018040008049F
:100F960000080400080400100600200780C00000B6
:100FA6000004000807FFF807FFF80400080400081B
:100FB60004000804001802001003807001FFE0001E
:100FC6007F8000000004000807FFF807FFF8040808
:100FD60008040808040808040808043E0804000871
:100FE60006001801006000000004000807FFF8076B
:100FF600FFF8040808040800040800040800043E7A
:10100600000600000600000180000000000000004D
:10101600003F8001FFE0038070060018040008040A
:1010260002080402080203F00783F000020000022F
:101036000004000807FFF807FFF804080800080086
:1010460000080000080000080004080807FFF80769
:10105600FFF8040008000000000000040008040077
:101066000804000807FFF807FFF804000804000852
:101076000400080000000000000000000000060058
:10108600000700000104000104000104000307FF3B
:10109600FE07FFFC04000004000004000004000832
:1010A60007FFF807FFF8040C08001800003E0004CC
:1010B600C7800503C80600F80400380400180000BD
:1010C6000804000807FFF807FFF8040008000008F6
:1010D60000000800000800000800000800001800D2
:1010E600006000000004000807FFF807800807FCFE
:1010F60000007FC00003F80007C0007800078008E2
:1011060007FFF807FFF804000804000807FFF807C0
:10111600000803C00000E000003800001E000007C1
:10112600000001C00400F007FFF804000000000002
:10113600007F8001FFE003807006001804000804A9
:10114600000806001803003001FFE0007F80000061
:101156000004000807FFF807FFF804040804040069
:10116600040400040400040400060C0003F8000153
:10117600F000000000000000007F8001FFE0038017
:10118600700600880400880400C806003C03003E80
:1011960001FFE6007F8400000004000807FFF8074F
:1011A600FFF8040808040800040C00040F00040BF0
:1011B600C00610F003F03801E00800000800000047
:1011C60001E0F803F030063010041808041808048B
:1011D6000C08040C080206180207F00781E000005C
:1011E600000180000600000400000400000400085E
:1011F60007FFF807FFF804000804000004000006D3
:10120600000001800004000007FFE007FFF0040073
:101216001800000800000800000800000800000888
:1012260004001007FFE004000004000006000007A9
:10123600E00007FE00041FE00001F800003800018E
:10124600E0043E0007C000060000040000040000A1
:1012560007E00007FFC0041FF80007C007F80007F3
:10126600FF80043FF80007C004F8000700000400F0
:101276000000000004000806001807C07805F1C841
:10128600003E00001F800463E80780F8060018048B
:10129600000800000004000006000007800007E0C8
:1012A60008047C08001FF80007F800180804E00886
:1012B6000700000600000400000000000100080608
:1012C60000380400F80403E8040F08047C0805F05D
:1012D6000807C008070018040060000000000000AE
:1012E6000000000000000000000000003FFFFE209C
:1012F600000220000220000220000220000200005E
:101306000000000000000008000007000000C00008
:101316000038000006000001C000003000000E008A
:101326000001000000000000000000200002200074
:10133600022000022000022000023FFFFE00000003
:101346000000000000000000000000000000000097
:1013560000000800001000003000002000003000EF
:10136600001000000800000000000000000000015E
:101376000000010000010000010000010000010062
:101386000001000001000001000001000001000052
:101396000100000000000000000020000020000006
:1013A6001000001000000000000000000000000017
:1013B60000000000000000000000F00019F8001B0B
:1013C60018002208002608002408002410003FF810
:1013D600001FF800000800001800000004000007C5
:1013E600FFF80FFFF0001818001008002008002072
:1013F60008003018001FF0000FC0000000000000B9
:101406000007C0001FF00018300020080020080068
:101416002008003C08001C100000600000000000CE
:10142600000000000007C0001FF000381800200868
:1014360000200800200804101007FFF80FFFF00036
:1014460000100000000000000000000007C0001FA0
:10145600F00012300022180022080022080032088C
:10146600001E10000E2000000000000000200000FA
:10147600200800200801FFF803FFF80620080420D2
:1014860008042008072000030000000000000000F8
:1014960000000E000E6E001FF30031B10020B100F7
:1014A60020B1003191001F13002E1E00200E0030C7
:1014B6000000000004000807FFF80FFFF8001008FE
:1014C600002000002000002008003FF8001FF80060
:1014D60000080000000000000000000020080020B6
:1014E60008002008063FF8063FF80000080000083C
:1014F60000000800000000000000000000000000DE
:101506000003000003002001002001002003063F25
:10151600FE063FFC00000000000000000000000086
:1015260004000807FFF80FFFF80001880003000019
:101536002FC00038F80020380020080000080000FE
:101546000000000000000004000804000804000871
:1015560007FFF80FFFF80000080000080000080069
:101566000000000000002008003FF8003FF80010CF
:1015760008002000003FF8003FF800100800200097
:10158600003FF8003FF800000800000000200800B7
:101596003FF8003FF800100800100000200000206F
:1015A60008003FF8001FF8000008000000000000D7
:1015B6000007C0000FF000183000300800200800B7
:1015C6002008003008001830000FF00007C00000A7
:1015D60000000000002001003FFF003FFF00101147
:1015E600002009002008002008003038001FF00005
:1015F6000FC00000000000000007C0001FF0003808
:1016060018002008002008002009001011001FFF04
:10161600003FFF0000010000000020080020080035
:101626002008003FF8003FF80008080010080020D6
:10163600080020000030000030000000000000001C
:10164600000000000C78001E180033080023080074
:1016560021080021880021980030F0003860000041
:101666000000000000200000200000200000FFF025
:1016760003FFF800200800200800200800003000C2
:101686000000000000000000002000003FF0007F86
:10169600F8000018000008000008002010003FF8BD
:1016A600007FF00000100000000000000020000095
:1016B6003000003C00003F800023F000007800006E
:1016C60070002380003C0000300000200000200055
:1016D600003C00003FE00023F80000E00027000087
:1016E6003E00003FE00021F80001E0003E0000203F
:1016F60000000000002008002008003838003E687E
:101706000027800003C8002CF80038380020180095
:101716002008000000000000002000003003003C0C
:1017260001003F830023EC000070002380003C0092
:101736000020000020000000000000000000000063
:1017460038080020380020F80023E8002F88003EE3
:101756000800380800201800007000000000000093
:10176600000000000000000000000000000800006B
:1017760014001FF7FC3000062000020000000000E5
:101786000000000000000000000000000000000053
:10179600000000FFFFFF0000000000000000000046
:1017A60000000000000000000000002000023000E1
:1017B600061FF7FC001400000800000000000000EF
:1017C600000000000000000000000000180000609B
:1017D600000040000040000020000010000008004B
:1017E600000400000400000C0000100000C6D50034
:1017F60000000000E0380000787800003C7000002F
:101806003CE1C01FFFFFE00838E0000638E70007AC
:10181600B8E78003B8EE0003F8EE0001F8FC4001DB
:10182600B8F8E07FFFFFF060000000000000000154
:10183600800C0001FFFE0001C01E0001C01C00015B
:10184600C01C0001FFFC0001C01C0001C01C0001FF
:10185600C01C0001FFFC0001C01C0001801C000030
:10186600000000D6D000000000000700000007803E
:101876000000070000000700000007000000070145
:10188600801FFFFFE01FFFFFE01E0701C01E0701CC
:10189600C01E0701C01E0701C01E0701C01E0701AA
:1018A600C01FFFFFC01FFFFFC01E0701C01C0701AE
:1018B6008000070000000700000007000000070086
:1018C60000000700000007000000070000000700F6
:1018D600000007000000000000BFC6000000000076
:1018E600000780003C07C001FC07803FE007803905
:1018F600C1C78001C0E78001C0F78001C0778001C1
:10190600DE77807FFE078001C0078003C3C78003A0
:10191600E1E78003F8F78007FCE7F00FDE67F80FD2
:10192600DC07F81FC0FF801DDFE78039CC07807118
:10193600C0078061C0078001C0078001C007800121
:10194600E0078001E0078001C0070000000000BC3E
:10195600BC000000000380300003C03C0003C03C14
:101966000003C0380003C0380003C0386003F838ED
:10197600F07FFFFFF003C0380003C0380003C03813
:101986000003DC39C003FFFFE007E383C03FC183E8
:10199600C07FC1C3803BC1C78003C0EF0003C0EF57
:1019A6000003C07E0003C07C0003C07C0003C0FEB1
:1019B600003BC3EF803F8787F80FBF03F807780027
:1019C600E000000000C4EA0000000000C0000001C2
:1019D600F0000001E0000003C000C003C001E00702
:1019E600FFFFF00703C0000E03C0001E03C0003C4B
:1019F60003C3007303C78063FFFFC00383C00003F4
:101A060083C0000383C0000383C0000383C0600358
:101A160083C0F07FFFFFF80003C0000003C0000092
:101A260003C0000003C0000003C0000003C00000A4
:101A360003C0000003C00000000000D4C200000084
:101A4600000000000000E0070000FFFF8000F00734
:101A56008000F0070000F0070000F0070000F00724
:101A66000000FFFF0000FFFF0000F0070000F00786
:101A76000000F0070000F0070000E0070000FFFF8D
:101A86000000E0070000E0070000E0070001E007B3
:101A96000001C0070001C00700038007000780F7A8
:101AA600000F007F001E001F0038001C0000000011
:101AB60000C8D5000000000000000003000300037A
:101AC600FFFF8003FFFF80038007000380070003FA
:101AD60080070003800700038007000380070003D8
:101AE6008007000380070003FFFF00038007000351
:101AF60080070003800700038007000380070003B8
:101B060080070003800700038007000380070003A7
:101B1600FFFF000380070003800700038007000320
:101B260000000000000000D0C70000000000000018
:101B3600000380070003FFFF800380070003800780
:101B4600000380070003FFFF0003800700038007F0
:101B56000003FFFF0003FFFF00038707000387C0A2
:101B66000003C7810003C7838007FFFFC007078004
:101B7600000F0780001E0786001C078F003BFFFF33
:101B8600807007800000078000000780E000078162
:101B9600F07FFFFFF80000000000000000C6DA003A
:101BA60000000006000000079E0000079E7FF00769
:101BB6009E7FF0079FF8F03FFFF8F01F9E78F00732
:101BC6009E78F0079E78F007FE7FF0079E78F00774
:101BD6009E78F0079E70F007FE70F0079E70F00783
:101BE6009E7FF0079FFFF03FFFF0F0119070F0032B
:101BF600DCF0F003DEE0F0078FE0F00F0FE0F00E10
:101C060007C0F01C038FF0380F03E0201C01C00052
:031C1600000000CB
:0A421A004200F2FFFF4200F4000032
:10000300E4FDFCC3ED9FEC9E5014E4FBFA0BBB0034
:0E001300010AEBF44A70F60DBD00010C80E509
:0100210022BC
:0C413C00E0FEA3E0FF1241BF7F517E00B7
:10414800AD07AC06C2A7C2A6ECF590AF058F80C23A
:06415800A5D2A5D2A722AA
:0741B8007E00124148E4FF04
:1041BF00AD07AC06C2A7D2A6ECF590AF058F80C2B3
:0641CF00A5D2A5D2A72233
:08417C0090011CE0FEA3E0FF2E
:10418400AD07AC06C2A7D2A6ECF590AF058F80C2EE
:06419400A5D2A5D2A7226E
:0E424900AB05AA04124148AE02AF030241BF0A
:1041F2007590FF7580FFC2A7D2A6C2B200AF90EF42
:09420200FEAD80EDFFD2B2D2A79F
:01420B002290
:103F67009000F1EFF0701E7D307C107F03FE12424F
:103F7700499000ED7401F0A37440F09000EBE4F079
:103F8700A374F0F0227D1C7C037F017E001242495E
:103F97007D387C107F037E001242499000EDE4F0EB
:0F3FA700A374F0F09000EB7401F0A37440F022CB
:10221300E4900036F0A3F0D2B37F64FE12415EC2B5
:10222300B37F647E0012415ED2B37F647E001241AD
:102233005EE4FFFE1241481241F29000EFEEF0A37C
:10224300EFF07FF07E001241487F011241BF7FF221
:102253001241487F107E201241BF7FF01241B87FA8
:10226300021241487F007E021241BF7F041241B82F
:102273007F081241487402FFFE1241BF7F091241D9
:10228300B87F0A1241BA7F0C1241BA7F0D1241BACC
:102293007F0F1241BA7F0A12415E7F101241B87F4D
:1022A300111241487F071241BF7F121241BA7F13B7
:1022B3001241BA7F071241487F011241BF7F0712C3
:1022C30041487F201241BF7FC812415E7F107E00CC
:1022D3001241487F907E141241BF7F117E0012414C
:1022E300487F277E021241BF7F327E0012415E7F0C
:1022F300127E001241487F8C1241BF7F0A12415E59
:102303007F137E001241487F007E161241BF7F2952
:102313007E001241487F2D1241BF7F2B1241487F1F
:102323000C1241BF7F3212415E7F201241B87F21E0
:102333001241BA7F301241487F031241BF7F3112ED
:1023430041487F057E041241BF7F327E001241481F
:102353007F047E021241BF7F357E001241487F0019
:102363000E1241BF7F361E1241487F047E14124174
:10237300BF7F377E001241487F057E031241BF7F36
:10238300387E001241487F037E021241BF7F397EAF
:10239300001241487F077E041241BF7F3C7E00123A
:1023A30041487F011241BF7F3D1241487F070E1212
:1023B30041BF7F011E1241BA7F031241487F307E25
:1023C300101241BF7F607E001241487F007EA7123A
:1023D30041BF7F501241B87F511241487FEF1241F4
:1023E300BF7F521241BA7F531241487F3F0E1241C1
:1023F300BF7F611E1241487F011241BF7F6A1241B4
:10240300BA7F901241487F101241BF7F921241BAA6
:102413007F0A12415E7F077E001241487F330E120E
:1024230041BF7BFF7A0079269000EFE0FFA3E090A5
:10243300003BCFF0A3EFF0121C84E4FF123F679040
:0A24430000F4E0FEA3E0FF023DAE4E
:053B2D00E0FEA3E0FF33
:103B3200900055EEF0A3EFF0A3ECF0A3EDF09000AF
:103B4200F1E0704B7F50FE12414890005512413C0B
:103B5200AF03AE021241BF7F527E00124148A3E082
:103B6200FEA3E0FF1241BF7F537E00124148900046
:103B72005BE0FEA3E0FF1241BF7F207E00124148BE
:103B8200900055E0FEA3E0FF1241BF7F21804A7FF3
:103B9200527E00124148900055E0FEA3E0FF124120
:103BA200BF7F537E00124148AE02AF031241BF7F76
:103BB200507E00124148A312413C90005BE0FEA3FC
:103BC200E0FF1241BF7F217E00124148900055E084
:103BD200FEA3E0FF1241BF7F207E00124148A3E016
:0F3BE200FEA3E0FF1241BF7F227E001241482266
:0E3E2F009000F6EEF0A3EFF0A3ECF0A3EDF0A0
:103E3D00E4A3F0A304F0A3E4F0A304F09000EBE0FE
:103E4D00FCA3E0FDC39000F7E09D9000F6E09C50D0
:103E5D00169000EDE0FAA3E0FB9000F8E0FCA3E083
:103E6D00FDC39BEC9A4004E4FEFF229000F6E0FABD
:103E7D00A3E0FBA3E0FFA3E090005BCFF0A3EFF086
:103E8D009000F6123B2D7F227E001241481241F226
:063E9D001241F21241F295
:013EA30022FC
:083DAE00900038EEF0A3EFF0E5
:103DB600E4A3F0A3F09000ECE024FFFB9000EBE01E
:103DC60034FFFA9000EEE024FFFE9000EDE034FFB1
:103DD60090005BF0A3CEF0E4FDFCFFFE123B32E464
:103DE600FAFBD39000ECE09B9000EBE09A4039E4BC
:103DF60090003AF0A3F09000EDE0FEA3E0FFC39040
:103E0600003BE09F90003AE09E5016900038124129
:103E16007F90003BE004F070DD90003AE004F08013
:083E2600D50BBB00010A80BAB4
:013E2E002271
:103A5D00900038ECF0A3EDF0900036EEF0A3EFF00F
:083A6D0090003AEAF0A3EBF02F
:103A7500E4900040F0A3F0D3EF9BEE9A4003023BA5
:103A85002C90003CE0FEA3E0FF900038E0FCA3E0B2
:103A9500FD9FEC9E4003023B2C90003AE0FAA3E028
:103AA500FBA3E0FFA3E090005BCFF0A3EFF0900055
:103AB50036123B2D900036E0FEA3E0FFC390003B9D
:103AC500E09FFF90003AE09ECF2401CF34009000A4
:103AD50036F0A3EFF0A3E0FEA3E0FFC390003DE0C6
:103AE5009FFF90003CE09ECF2401CF34009000382A
:103AF500F0A3EFF090003674FFF5F0121FEC45F0DF
:103B05006025900038E0FFA3E0900040CFF0A3EFE0
:103B1500F090004074FFF5F0121FEC45F060D59071
:073B2500003E12417F80EA1F
:013B2C002276
:0E36CC009000B0EEF0A3EFF0A3ECF0A3EDF051
:1036DA009000B0E0FEA3E0FFC3EB9FFFEA9ECF2479
:1036EA0001CF34009000BDF0A3EFF09000B2E0FEED
:1036FA00A3E0FFC39000B7E09FFF9000B6E09ECF23
:10370A002401CF34009000BBF0A3EFF09000B2E0A8
:10371A00FCA3E0FD9000B6E0FFA3E090005BCFF0D1
:10372A00A3EFF09000B0123B2DE49000BFF0A3F09D
:10373A009000BBE0FEA3E0FFC39000C0E09F9000B2
:10374A00BFE09E5074E49000C1F0A3F09000BDE089
:10375A00FEA3E0FF9000C1E0FAA3E0FBC39FEA9E4C
:10376A0050469000BDE0FCA3E0FDA3E0FEA3E0FF0D
:10377A00121FC4EB2FFFEA3EFEEF25E0FFEE33FEF9
:10378A009000B8E0FBA3E0FAA3E0F98F828E8312DF
:10379A002002FFAEF01241849000C2E004F070AC47
:1037AA009000C1E004F080A49000C0E004F07080B2
:0937BA009000BFE004F002373A70
:0137C30022E3
:10404200900106FEE0FCA3E0FDC3900103E09DFDAC
:06405200900102E09CFC5D
:10405800AB07AA068D828C83C006C007AE83AF82E9
:1040680090005BEEF0A3EFF0D007D006123B329041
:0A40780000F2E0FEA3E0FF02418425
:063FB600FDE0FAA3E0FBB0
:103FBC0090004FEEF0A3EFF0900053EAF0A3EBF07B
:103FCC00900051ECF0A3EDF090004FE0FAA3E0FB71
:103FDC00FFAE02C007A3E0FFA3E090005BCFF0A30D
:103FEC00EFF0D007123B32900053E0FEA3E0FF024B
:023FFC004184FE
:103EA400900112EEF0A3EFF0A3ECF0A3EDF0A3EA7F
:103EB400F0A3EBF0123FBC900113E02401FF90014A
:103EC40012E03400FE900114E0FCA3E0A3123FB61C
:103ED400900112E0FEA3E0FF900115E02401FD90A3
:103EE4000114E03400FC900116123FB7900113E076
:103EF4002401FF900112E03400FE900115E024013A
:103F0400FD900114E03400FC900116E0FAA3E0FBFC
:033F1400023FBCAD
:0E265A0090007FEEF0A3EFF0A3ECF0A3EDF004
:10266800E4900087F0A3F0A3F0A3F0A3F0A3F09008
:10267800007FE0FEA3E0FFC3EB9FFFEA9E90008D82
:10268800F0A3EFF0900081E0FAA3E0FBC39000868E
:10269800E09BFE900085E09A90008FF0A3CEF0902A
:1026A800007FE0FFA3E0900097CFF0A3EFF0A3EA4C
:1026B800F0A3EBF090008DE0FEA3E0FFD39400EED2
:1026C80064809480400A900093E4F0A304F0802191
:1026D800EF4E7008900093F0A3F0801574FF9000FF
:1026E80093F0A3F0C3E49FFFE49E90008DF0A3EF66
:1026F800F090008FE0FEA3E0FFD39400EE64809496
:1027080080400A900095E4F0A304F08021EF4E7019
:1027180008900095F0A3F0801574FF900095F0A341
:10272800F0C3E49FFFE49E90008FF0A3EFF09000C9
:102738008FE0FEA3E0FF90008DE0FCA3E0FDD39FB7
:10274800EE6480F8EC6480989000914007ECF0A368
:10275800EDF08005EEF0A3EFF0E4900087F0A3F031
:10276800900092E02401FF900091E03400FED390A5
:102778000088E09F900087E09E4003022848900070
:1027880097E0FEA3E0FFA3E0FCA3E0FD1240589011
:10279800008DE0FEA3E0FF90008AE02FF090008912
:1027A800E03EF090008FE0FEA3E0FF90008CE02F69
:1027B800F090008BE03EF0900091E0FEA3E0FF90E7
:1027C8000089E0FCA3E0FDD39FEE6480F8EC648010
:1027D800984020ED9FFFEC9E900089F0A3EFF090C9
:1027E8000093E0FEA3E0FF900098E02FF0900097A0
:1027F800E03EF0900091E0FEA3E0FF90008BE0FC4B
:10280800A3E0FDD39FEE6480F8EC6480984020ED4F
:102818009FFFEC9E90008BF0A3EFF0900095E0FEF8
:10282800A3E0FF90009AE02FF0900099E03EF0902E
:102838000088E004F07006900087E004F002276842
:01284800226D
:0E284900900061EEF0A3EFF0A3ECF0A3EDF031
:10285700E490006DF0A3F0A3F0A3F0900061E0FE18
:10286700A3E0FFC3EB9FFFEA9E900071F0A3EFF098
:10287700900063E0FAA3E0FBC3900068E09BFE9042
:102887000067E09A900073F0A3CEF0900061E0FF3C
:10289700A3E090007BCFF0A3EFF0A3EAF0A3EBF067
:1028A700900071E0FEA3E0FFD39400EE6480948073
:1028B700400A900077E4F0A304F08021EF4E7008FF
:1028C700900077F0A3F0801574FF900077F0A3F0E5
:1028D700C3E49FFFE49E900071F0A3EFF0900073B4
:1028E700E0FEA3E0FFD39400EE64809480400A905A
:1028F7000079E4F0A304F08021EF4E70089000798E
:10290700F0A3F0801574FF900079F0A3F0C3E49F63
:10291700FFE49E900073F0A3EFF0900073E0FEA336
:10292700E0FF900071E0FCA3E0FDD39FEE6480F828
:10293700EC6480989000754007ECF0A3EDF08005FB
:10294700EEF0A3EFF0E490006BF0A3F0900076E0D8
:102957002401FF900075E03400FED390006CE09FE7
:1029670090006BE09E4003022A3590007BE0FEA3B7
:10297700E0FFA3E0FCA3E0900069123FB69000716E
:10298700E0FEA3E0FF90006EE02FF090006DE03EC8
:10299700F0900073E0FEA3E0FF900070E02FF0904E
:1029A700006FE03EF0900075E0FEA3E0FF90006D41
:1029B700E0FCA3E0FDD39FEE6480F8EC64809840D0
:1029C70020ED9FFFEC9E90006DF0A3EFF090007755
:1029D700E0FEA3E0FF90007CE02FF090007BE03E5C
:1029E700F0900075E0FEA3E0FF90006FE0FCA3E02D
:1029F700FDD39FEE6480F8EC6480984020ED9FFF44
:102A0700EC9E90006FF0A3EFF0900079E0FEA3E05A
:102A1700FF90007EE02FF090007DE03EF090006C8C
:0E2A2700E004F0700690006BE004F00229530A
:012A3500227E
:10398500900118EEF0A3EFF090011CEAF0A3EBF024
:0839950090011AECF0A3EDF023
:10399D00900118E0FAA3E0FB24FFFFEA34FFFEC01C
:1039AD0006C007ED24FFFDEC34FFFCEB2401FBE426
:1039BD003AFAA3E0FEA3E02401FFE43E90005BF0A1
:1039CD00A3EFF0D007D006123B32E4FB12417C0B83
:1039DD00EBB409F8900119E024FCFF900118E034D4
:1039ED00FFFEC00790011AE0FCA3E0FD900119E075
:1039FD002404FB900118E03400FA90011AE0FFA3B3
:103A0D00E090005BCFF0A3EFF0D007123B32E4FB68
:103A1D0012417C0BEBB409F890011BE024FCFD90E6
:103A2D00011AE034FFFC900118E0FAA3E0FBA3E0DB
:103A3D00FEA3E02404FFE43E90005BF0A3EFF090C2
:0F3A4D000118123B2DE4FB12417C0BEBB409F87E
:013A5C002247
:103BF10090010EEAF0A3EBF090010AEEF0A3EFF0D2
:103C0100A3ECF0A3EDF0C007A3E0FAA3E0FB900161
:103C11000CE0FFA3E0900085CFF0A3EFF0D00712F6
:103C2100265A90010AE0FAA3E0FBFFAE02C007A307
:103C3100E0FCA3E0FD900110E0FFA3E0900085CF40
:103C4100F0A3EFF0D00712265A900110E0FCA3E098
:103C5100FD90010EE0FAA3E0FBA3E0FFA3E09000DA
:103C610085CFF0A3EFF090010AE0FEA3E0FF12265A
:103C71005A90010EE0FAA3E0FBFFAE02C0079001EB
:103C81000CE0FCA3E0FD900110E0FFA3E0900085B3
:0A3C9100CFF0A3EFF0D00702265A8F
:0E2A3600900100EEF0A3EFF0A3ECF0A3EDF0A2
:102A4400E4A3F0A3F0EBFF7E00A3EEF0A3EFF025E8
:102A5400E0FFEE33FEC374039F900109F0E49E90FF
:102A64000108F0900106E0FEA3E0FF900104E0FC01
:102A7400A3E0FDD39FEE6480F8EC648098400302E9
:102A84002C0D900101E02DFF900100E03C1240422A
:102A9400900106E0FEA3E0FF900101E02FFF90010A
:102AA40000E03E900104124045900106E0FEA3E0E0
:102AB400FF900101E02FFF900100E03EFE90010431
:102AC400E0FCA3E0FD900103E02DFD900102E03C59
:102AD400FC124058900104E0FEA3E0FF900101E0E5
:102AE4002FFF900100E03EFE900106E0FCA3E0FD14
:102AF400900103E02DFD900102E03CFC124058904F
:102B04000104E0FEA3E0FFC3900101E09FFF9001F8
:102B140000E09EFE900106E0FCA3E0FD900103E0CE
:102B24002DFD900102E03CFC124058900106E0FEAD
:102B3400A3E0FFC3900101E09FFF900100E09EFE2F
:102B4400900104E0FCA3E0FD900103E02DFD900161
:102B540002E03CFC124058900104E0FEA3E0FFC3F5
:102B6400900101E09FFF900100E09E12404290011D
:102B740006E0FEA3E0FFC3900101E09FFF90010087
:102B8400E09EFE900104124046900105E004F070BE
:102B940006900104E004F0C3900108E0648094808E
:102BA4005025900104E0FEA3E07802C333CE33CE77
:102BB400D8F92406FFE43EFE900109E02FF09001CD
:102BC40008E03EF0022A67900106E0FEA3E0FFC39E
:102BD400900105E09FFF900104E09EFEEF7802C3A0
:102BE40033CE33CED8F9240AFFE43EFE900109E047
:102BF4002FF0900108E03EF0900107E024FFF090F0
:092C04000106E034FFF0022A672A
:012C0D0022A4
:102F4D00900043EEF0A3EFF0900047EBF0900045BA
:052F5D00ECF0A3EDF013
:102F620090004CECF0A3EDF0900048E0FF13131337
:102F7200541FFEEF540760047F0180027F00EE2F92
:102F8200FF900048E0C313FEEF8EF0A490004EF0D5
:102F9200900047E024E0F0E4F990004EE0FFE9C33E
:102FA2009F40030230C4900048E0FFB40C1290002E
:102FB20047E075F00CA42433F582E5F0340080314B
:102FC200EFB41012900047E075F010A424A7F58228
:102FD200E5F03404801B900048E06418600302307E
:102FE200C4900047E075F024A42497F582E5F034FC
:102FF2000AF583E58229F582E43583F583E493902B
:10300200004AF0E490004BF090004AE030E7139061
:103012000043E0FEA3E0FFA3E0FCA3E0FD9000F28A
:103022008017900049E07014900043E0FEA3E0FF97
:10303200A3E0FCA3E0FD9000F4123FB790004AE049
:1030420025E0F0900046E004F07006900045E004B0
:10305200F09000EDE0FEA3E0FF900045E0FCA3E06D
:10306200FDC39FEC9E505B90004CE0FEA3E0FFC3CB
:10307200ED9FFDEC9EFC900048E07A00B50530EA39
:10308200B5042C900045EEF0A3EFF0900044E0046C
:10309200F07006900043E004F09000EBE0FEA3E045
:1030A200FFC3900044E09F900043E09E40102290B6
:1030B200004BE004F0E0C39408500302300A090216
:0230C2002F9B42
:0130C40022E9
:073F1700C3EF9E14FD7F0AB9
:083F1E0090011EEFF0A3EDF08D
:103F2600A312218A0000000190011FE0FF14F0EFA8
:103F36006020A3E0F8A3E0F9A3E0FAA3E0FB900178
:103F46001EE0FFE4FCFDFE12203A90012012217EC5
:103F560080D6900120E0FCA3E0FDA3E0FEA3E0FFF5
:013F66002238
:0E38A9009000D1EEF0A3EFF0A3ECF0A3EDF051
:1038B700E49000DDF09000DBF09000D9E0FF90008D
:1038C700DBE0FEC39F4003023984123F17A804A917
:1038D70005AA06AB079000D5E0FCA3E0FDA3E0FE38
:1038E700A3E0FF1220C5E47B0AFAF9F81220C5907D
:1038F70000DCEBF0A3E070459000D9E014FF9000E6
:10390700DBE0FEC39F5036A3E0702C9000DAE0FBAB
:10391700C3138EF0A4FF9000D2E02FFF9000D1E0F8
:1039270035F0FE9000D3E0FCA3E0FD900048EBF0FB
:10393700E4A3F07B20803A9000DD7401F09000DA78
:10394700E0FAC313FFA3E0FEEF8EF0A4FF9000D2CE
:10395700E02FFF9000D1E035F0FE9000D3E0FCA30C
:10396700E0FD9000DCE02430FB900048EAF0E4A39F
:0D397700F0122F4D9000DBE004F00238C08C
:013984002220
:0E348F009000C3EEF0A3EFF0A3ECF0A3EDF07D
:10349D00E49000D0F09000CEF09000CBE0FF9000D3
:1034AD00CEE0FEC39F40030235B7123F17A804A913
:1034BD0005AA06AB079000C7E0FCA3E0FDA3E0FE64
:1034CD00A3E0FF1220C5E47B0AFAF9F81220C5909B
:1034DD0000CFEBF0A3E0600302356E9000CBE0145B
:1034ED00FF9000CEE0FEC39F5077A3E0706D90007B
:1034FD00CDE0F99000CC30E72BE0FBC3138EF0A4A8
:10350D00FF9000C4E02FFF9000C3E035F0FE900067
:10351D00C5E0FCA3E0FD900048EBF0E95401A3F0F9
:10352D007B30807AE0FBC313FF9000CEE0FEEF8E80
:10353D00F0A4FF9000C4E02FFF9000C3E035F0FE33
:10354D009000C5E0FCA3E0FD900048EBF09000CDAD
:10355D00E05401900049F07B2080439000D074012D
:10356D00F09000CCE0FAC313FF9000CEE0FEEF8E9A
:10357D00F0A4FF9000C4E02FFF9000C3E035F0FEF3
:10358D009000C5E0FCA3E0FD9000CFE02430FB905F
:10359D000048EAF09000CDE05401900049F0122F60
:0A35AD004D9000CEE004F00234A6B9
:0135B70022F1
:1037C400900036EEF0A3EFF0A3ECF0A3EDF0A3EA43
:0437D400F0A3EBF083
:1037D800900036E0FEA3E0FF900042F090003BE04E
:1037E8002FF090003AE03EF0900038E0FEA3E0FFB2
:1037F80090003DE02FF090003CE03EF090003FE06C
:10380800FBA3E0FAA3E0F9121F7EFFD3947E4003E6
:103818000238A8EFC3942050030238A890003AE079
:10382800FEA3E0FF900037E09F900036E09E401F27
:10383800900042E0FF900036E4F0A3EFF090003EE5
:10384800E0FF900039E02FF0900038E03400F0906D
:10385800003CE0FEA3E0FF900038E0FCA3E0FDC3DD
:103868009FEC9E503B900036E0FEA3E0FF121F7EC7
:10387800FB90003EE0900048F0E4A3F0122F4D903A
:10388800003EE0C313FF900037E02FF0900036E0D1
:103898003400F0900040E475F001121FD60238049D
:0138A80022FD
:10336400900036EEF0A3EFF0A3ECF0A3EDF0A3EBA6
:07337400F0A3EAF0A3E9F069
:10337B0090003AE0FBA3E0FAA3E0F9121F7E700382
:10338B0002348E900036E0FAA3E0FBFFAE02C006DB
:10339B00C007A3E0FCA3E0FDEB241FFBE43AFA908B
:1033AB000038E0FEA3E0241CFFE43E90005BF0A39A
:1033BB00EFF0D007D006123B32E490003DF09000C6
:1033CB003DE0FFC39414400302347390003AE0FBDA
:1033DB00A3E0FAA3E0F9121F7EFE75F076EFA424AA
:1033EB00F3F582E5F03417F583E4936E707190007A
:1033FB0001121F97FF90003DE075F076A424F4F5C1
:10340B0082E5F03417F583E4936F7053FB90003D26
:10341B00E075F076A424F5F582E5F03417F583E535
:10342B00822BF582E43583F583E493FF90003EE431
:10343B00F0A3EFF0E4FA90003FE030E7059000F2E4
:10344B0080039000F412417F90003FE025E0F09064
:10345B00003EE033F00AEAB408DC0BEBB474AE9038
:10346B00003DE004F00233C990003BE475F002121A
:10347B001FD6900037E02420F0900036E03400F0A7
:03348B0002337B8E
:01348E00221B
:1032370090009BEEF0A3EFF0A3ECF0A3EDF0A3EA70
:04324700F0A3EBF015
:10324B00E49000A6F0A3F0A312218A0000000090E6
:10325B0000AC12218A0000000090009DE0FCA3E06E
:10326B00FDA3E0FEA3E0FF90009BE0FAA3E02FFF9D
:10327B00EA3ECF24FFFBEF34FFFA9000A1E0FEA360
:10328B00E0FF90009DE0F8A3E02FFFE83ECF24FF86
:10329B00CF34FF90005BF0A3EFF090009B123B2D1F
:1032AB009000A1E0FCA3E0FD90009FE0FEA3E0FFF7
:1032BB00121FC4EF25E0FFEE33FEE4FCFD9000ACE3
:1032CB0012217E9000A8A3A3E0FEA3E0FDAC062490
:1032DB0001FFE43CFE9000A3E0FBA3E0FAA3E0F9BE
:1032EB008F828E83121F97FF9000A6E4F0A3EFF05E
:1032FB00E0F8E4F0E89000A6F08D828C83121F9723
:10330B00FF9000A6E0FEA3E04FFF9000A6EEF0FEBC
:10331B00A3EFF0124184A3E0FCA3E0FDA3E0FEA326
:10332B00E02402FFE43EFEE43DFDE43CFC9000A8FB
:10333B0012217E9000ACE0FCA3E0FDA3E0FEA3E035
:10334B00FF9000A8E0F8A3E0F9A3E0FAA3E0FBC329
:08335B0012215750030232CE8B
:013363002247
:0B426200C2A1D2A3D2A2D2A1C2A3220B
:1041D500C2A1E4FEEFC4131313540124FF92A2EF0E
:0C41E50025E0FFC2A1D2A10EEEB408E854
:0141F10022AB
:10408200E490005FF0A3F0C2A1FDFC900060E02587
:10409200E0F090005FE033F0D2A1C2A1A2A0E4332D
:1040A200FFE0F0A3E04FF00DBD00010CED640C4CFD
:0A40B20070D990005FE0FEA3E0FF6C
:0140BC0022E1
:072DC600EEF0A3EFF07F9097
:022DCD00AB0752
:102DCF00C2A1C2A3E4900045F0AF031241D5900019
:102DDF00467406F0900046E014F0E070F7D2A100C0
:102DEF0000C2A10000124082900045E025E0244778
:102DFF00F582E43400F583EEF0A3EFF0900045E0A8
:102E0F0004F0E0C3940A40C1D2A3E4900045F090CF
:102E1F000045E0FFC394094003022ED4EF04A3F052
:102E2F00900046E0FFC3940A4003022ECBEF25E04B
:102E3F002447F582E43400F583E0FEA3E0FF900021
:102E4F0045E0FB25E02447F582E43400F583E0FC00
:102E5F00A3E0C39FEC9E505BEB25E02447F582E493
:102E6F003400F583E0FEA3E0FFE4FCFD90005B126D
:102E7F00217E900046E0FA25E02447F582E43400F5
:102E8F00F583E0FEA3E0FFEB25E02447F582E43471
:102E9F0000F583EEF0A3EFF090005BA3A3E0FEA399
:102EAF00E0FFEA25E02447F582E43400F583EEF0F5
:102EBF00A3EFF0900046E004F0022E2F900045E0C3
:102ECF0004F0022E1E90005B12218A000000009079
:102EDF0000457402F090005BE0F8A3E0F9A3E0FA7C
:102EEF00A3E0FB900045E025E02447F582E43400A1
:102EFF00F583E0FEA3E0FFE4FCFDEB2FFFEA3EFECF
:102F0F00ED39FDEC38FC90005B12217E900045E01E
:102F1F0004F0E0B408BF90005BE0FCA3E0FDA3E089
:102F2F00FEA3E0FFE47B06FAF9F8123FFE90005B88
:0D2F3F0012217E90005BA3A3E0FEA3E0FF43
:012F4C002262
:1035B8001242627FD0122DCD90003B122DC6900092
:1035C80041EEF0A3EFF07FD0122DCD90003D122DEB
:1035D800C6AD07AC0690003DE0FEA3E0FF90003BBF
:1035E800E0FAA3E0FBD39FEA9E400AA3A3EB9FFF68
:1035F800EA9EA3801790003BE0FEA3E0FFC3900083
:103608003EE09FFF90003DE09E90003FF0A3EFF06A
:10361800900041E0FEA3E0FFD39DEE9C4007EF9DA4
:10362800FFEE9C800E900041E0FEA3E0FFC3ED9FFB
:10363800FFEC9EA3F0A3EFF0D3900040E09432900B
:10364800003FE09400500E900044E0943290004314
:10365800E0940040037F002290003DE0FEA3E0FFDD
:1036680090003CE02FFF90003BE03EC313FEEF13B9
:10367800FF9000DEEEF0A3EFF0900042E02DFF9007
:103688000041E03CC313FEEF13FF9000E0EEF0A30F
:10369800EFF09000DFE054F0F09000E1E054F0F03B
:1036A800C39000DFE094649000DEE09400400FD304
:1036B8009000E1E094D89000E0E0940E40037F0091
:0336C800227F015D
:0136CB0022DC
:10419A00E4900036F01235B8EF60089000367401EA
:0D41AA00F08001E49000EAF0900036E0FFA4
:0141B70022E5
:03000000023C9B24
:0C3C9B00787FE4F6D8FD758121023CE240
:101F7E00BB010689828A83E0225002E722BBFE0261
:091F8E00E32289828A83E4932294
:101F9700BB010CE58229F582E5833AF583E02250FF
:101FA70006E92582F8E622BBFE06E92582F8E22249
:0D1FB700E58229F582E5833AF583E4932263
:101FC400EF8DF0A4A8F0CF8CF0A428CE8DF0A42E31
:021FD400FE22EB
:101FD600C5F0F8A3E028F0C5F0F8E5821582700296
:061FE6001583E038F02233
:101FEC00A3F8E0C5F025F0F0E582158270021583A8
:061FFC00E0C838F0E82205
:10200200BB0110E58229F582E5833AF583E0F5F01C
:10201200A3E0225009E92582F886F008E622BBFEF9
:102022000AE92582F8E2F5F008E222E5832AF5833F
:08203200E993F5F0A3E9932204
:10203A00E88FF0A4CC8BF0A42CFCE98EF0A42CFC45
:10204A008AF0EDA42CFCEA8EF0A4CDA8F08BF0A4C3
:10205A002DCC3825F0FDE98FF0A42CCD35F0FCEB22
:10206A008EF0A4FEA9F0EB8FF0A4CFC5F02ECD39E7
:0F207A00FEE43CFCEAA42DCE35F0FDE43CFC2254
:1020890075F008758200EF2FFFEE33FECD33CDCC0E
:1020990033CCC58233C5829BED9AEC99E582984091
:1020A9000CF582EE9BFEED9AFDEC99FC0FD5F0D66E
:1020B900E4CEFBE4CDFAE4CCF9A88222B800C1B998
:1020C9000059BA002DEC8BF084CFCECDFCE5F0CBD6
:1020D900F97818EF2FFFEE33FEED33FDEC33FCEB0F
:1020E90033FB10D703994004EB99FB0FD8E5E4F9CA
:1020F900FA227818EF2FFFEE33FEED33FDEC33FCB7
:10210900C933C910D7059BE99A4007EC9BFCE99AAA
:10211900F90FD8E0E4C9FAE4CCFB2275F010EF2FEF
:10212900FFEE33FEED33FDCC33CCC833C810D707EF
:102139009BEC9AE899400AED9BFDEC9AFCE899F82A
:0E2149000FD5F0DAE4CDFBE4CCFAE4C8F922BD
:103FFE00C2D5E830E70FB2D5E4C39BFBE49AFAE4EE
:10400E0099F9E498F8EC30E717B2D5124034122043
:10401E00C5E4C39BFBE49AFAE499F9E498F88003AB
:10402E001220C530D50DE4C39FFFE49EFEE49DFD36
:04403E00E49CFC22E0
:10215700EB9FF5F0EA9E42F0E99D42F0EC6480C8FF
:0621670064809845F0229F
:10216D00EB9FF5F0EA9E42F0E99D42F0E89C45F0C8
:01217D00223F
:0C217E00ECF0A3EDF0A3EEF0A3EFF022D4
:10218A00A8828583F0D083D0821221A11221A112C4
:10219A0021A11221A1E473E493A3C583C5F0C583E9
:1021AA00C8C582C8F0A3C583C5F0C583C8C582C89F
:0121BA002202
:101C1900E508243BF582E43400F583E005082290C9
:101C2900003830070390003BE475F0011221CD0222
:101C39001F7E2000E97F2ED2008018EF540F2490D8
:101C4900D43440D4FF30040BEF24BFB41A0050033E
:101C59002461FFE50960021509050CE50C70020510
:101C69000B30070E900038E475F0011221CDEF0218
:101C790021BB0240F07403D2078003E4C207F508D0
:101C89009000381221E4E4F509F50BF50CE509603B
:101C9900077F20121C5C80F5750AFFC201C200C2D1
:101CA90002C203C205C206C208121C28FF700D3009
:101CB90007057F00121C6DAF0CAE0B22B4255FC265
:101CC900D5C204121C28FF24D0B40A00501A75F09A
:101CD9000A780930D50508B6FF0106C6A426F620FC
:101CE900D5047002D20380D924CFB41A00EF50046E
:101CF900C2E5D204021E6ED20180C6D20080C0D2D3
:101D09000280BCD2D580BAD20580B47F20121C5C77
:101D19002002077401B5090040F1121C19FF121CB9
:101D29005C021C96D208D2068095121C19FB121C63
:101D390019FA121C19F94A4B7006793F7A1F7BFF71
:101D490020022EE509602A7E008E82758300121F0B
:101D59009760060EEE650A70F0C2D5EBC0E0EAC0E6
:101D6900E0E9C0E0EE121EB5D0E0F9D0E0FAD0E02B
:101D7900FB121F7EFF60AAEBC0E0EAC0E0E9C0E009
:101D8900121C5CD0E02401F9D0E03400FAD0E0FB69
:101D9900E50A0460DCD50AD980877BFF7A1E79B110
:101DA900D202809C791080027908C206C208800894
:101DB900D2D5790A8004790AC2D5E50A047002F5F8
:101DC9000AE4FAFDFEFF121C19FC7B08200113121C
:101DD9001C19FD7B1030000A121C19FE121C19FF78
:101DE9007B20EC3382D592D55013C3E43000069F93
:101DF900FFE49EFEE42001039DFDE49CFCE4CBF896
:101E0900C201EC700CCFCECDCCE824F8F870F38089
:101E190017C3EF33FFEE33FEED33FDEC33FCEB3349
:101E2900FB994002FB0FD8E9EB300105F8D0E0C47B
:101E390048B201C0E00AEC4D4E4F78207B0070C2D9
:101E4900EAB50A0040BCC0E0121EB7D0F0D0E020CD
:101E59000104C4C0E0C4B201C0F0121C45D0F0D5E1
:101E6900F0EB021C961221ED1D33531DAD581D04D4
:101E79004C1D00421DB14F1DB9441DB9491D1943DF
:081E89001DBF551DA3461DA35A
:101E9100451DA3471F5F501D082D1D0C2E1D2F2B07
:101EA1001D10231D2D201F482A1CC84800001D2776
:101EB1003F3F3F00790AA2D5200314300509B9102C
:101EC100020404B9080104A2D5200602500104202D
:101ED10002689202B509005034C0E07F2030031936
:101EE1007F30A20272067205500F121F0EC202C28B
:101EF10006C205C2087F30800F300503E9C0E01239
:101F01001C5C300503D0E0F9D0E0B509CC300517F1
:101F11007F30B9100C121C5C7F583004077F788029
:101F210003B90803121C5C3002057F2D021C5C7F83
:101F3100202008F87F2B2006F322920280CF286E02
:101F4100756C6C2900D201121C193001F8C201789C
:101F51000930D50108F6021CC82D50434958121CFE
:101F6100192403B405004001E4901F5A93121C4D3B
:0D1F7100743A121C4DD203750904021DAD17
:103CA700022C0EE493A3F8E493A34003F68001F2F9
:103CB70008DFF48029E493A3F85407240CC8C3331E
:103CC700C4540F4420C8834004F456800146F6DFED
:103CD700E4800B010204081020408090420CE47E2F
:103CE700019360BCA3FF543F30E509541FFEE493E2
:103CF700A360010ECF54C025E060A840B8E493A3A9
:103D0700FAE493A3F8E493A3C8C582C8CAC583CAD3
:103D1700F0A3C8C582C8CAC583CADFE9DEE780BE8B
:014224000099
:1021BB00BB010689828A83F0225002F722BBFE0103
:0221CB00F322FD
:1021CD00F8E0FBA3A3E0F925F0F0E582158270029B
:0721DD001583E0FA38F0223F
:0921E400EBF0A3EAF0A3E9F022FC
:1021ED00D083D082F8E4937012740193700DA3A381
:1021FD0093F8740193F5828883E473740293686095
:06220D00EFA3A3A380DF94
:1040F000EFB40A07740D1240FB740A309811A899A6
:10410000B8130CC2983098FDA899C298B811F6302F
:0741100099FDC299F5992207
:00000001FF
